:100000000C9463000C948B000C948B000C948B006C
:100010000C948B000C948E060C948B000C948B002B
:100020000C948B000C948B000C948B000C948B0024
:100030000C948B000C948B000C948B000C948B0014
:100040000C94CF050C948B000C9419060C948B0027
:100050000C948B000C948B000C948B000C948B00F4
:100060000C948B000C948B000000000024002700EF
:100070002A000000000023002600290000000008DC
:10008000000201000003040700000000000000005F
:10009000010204081020408001020408102001021F
:1000A0000408102000000000250028002B00040494
:1000B0000404040404040202020202020303030310
:1000C0000303D00D9A0B11241FBECFEFD8E0DEBF83
:1000D000CDBF11E0A0E0B1E0E0E1FCE202C005909C
:1000E0000D92AA38B107D9F725E0AAE8B1E001C01E
:1000F0001D92A031B207E1F710E0C2E6D0E004C0E3
:100100002197FE010E945E0FC136D107C9F70E94F8
:10011000AA0B0C94FB150C940000FC01918D828DB0
:10012000981761F0828DDF01A80FB11D5D968C914B
:10013000928D9F5F9F73928F90E008958FEF9FEF56
:100140000895FC01918D828D981731F0828DE80F12
:10015000F11D858D90E008958FEF9FEF0895FC01CC
:10016000918D228D892F90E0805C9F4F821B910999
:100170008F7399270895CF92DF92EF92FF920F939A
:100180001F93CF93DF936C017A018B01C0E0D0E025
:10019000CE15DF0581F0D8016D918D01D601ED916D
:1001A000FC910190F081E02DC6010995892B11F099
:1001B0002196EECF7E01C701DF91CF911F910F9164
:1001C000FF90EF90DF90CF900895089580E090E049
:1001D00008958091E003803231F080E28093E00363
:1001E00081E08093DF03089590917C00907F90934D
:1001F0007C0090917C008F70982B90937C00809174
:100200007A00806480937A0080917A0086FDFCCF2A
:10021000809178002091790090E0922B08958A30A7
:1002200039F49091C00095FFFCCF9DE09093C600FB
:100230009091C00095FFFCCF8093C60080E090E0D5
:100240000895CF93DF93DC018091DB03811102C01D
:1002500082EF4CC01092DB039091910380911301C7
:10026000981711F08AEF42C0809193038A5F90E063
:10027000CFE8D3E0AE012FEF3FEFBA016F587340E4
:100280006817790788F4FA016191AF01E62FE32737
:10029000F0E0EE0FFF1FE157FE4F60817181322FBA
:1002A000222726273727E9CF8091D60382131DC046
:1002B0008091D503381319C0FD018991819383E0A2
:1002C000C539D807D1F714969C911497169620E05B
:1002D00030E0291740F4F901E157FC4F86818D93F6
:1002E0002F5F3F4FF6CF892F04C08CEF8093D70349
:1002F0008FEFDF91CF9108950E94E812CF93DF93A3
:10030000FC019FB7F8942FEF3FEF3183208380915A
:1003100013018383848146E0480F50E0EF01BE0162
:100320006E1B7F0B6417750770F4A991A327B0E0CB
:10033000AA0FBB1FA157BE4F6D917C91322F222770
:1003400026273727ECCFDF01AA5BBF4F3C931196DE
:100350002C938F3348F4DF01A80FB11D16963C9300
:10036000169717962C9307C0803429F08EEF809350
:10037000D7038FEF29C038E0380FAFE9BFE01197FE
:10038000F1F700C000002091C00027FF03C02091BA
:10039000C600F9CF289ADF012A2F2E1B231740F41D
:1003A0002091C00025FFFCCF2D912093C600F4CFF3
:1003B0002091C00025FFFCCFEFE9FFE03197F1F776
:1003C00000C0000028989FBFDF91CF91089583302F
:1003D00081F028F4813099F08230A1F008958730BF
:1003E000A9F08830B9F08430D1F4809180008F7DFD
:1003F00003C0809180008F7780938000089584B53A
:100400008F7702C084B58F7D84BD08958091B00040
:100410008F7703C08091B0008F7D8093B0000895E6
:100420001F93CF93DF93282F30E0F901E458FF4F5B
:100430008491F901E057FF4FD491F901E255FF4F44
:10044000C491CC23C1F0162F81110E94E701EC2F3B
:10045000F0E0EE0FFF1FEC55FF4FA591B4919FB751
:10046000F894111104C08C91D095D82302C0EC915E
:10047000DE2BDC939FBFDF91CF911F910895CF9327
:10048000DF9390E0FC01E057FF4F2491FC01E2551F
:10049000FF4F8491882361F190E0880F991FFC0140
:1004A000E859FF4FC591D491FC01EC55FF4FA59140
:1004B000B491611109C09FB7F89488812095822377
:1004C0008883EC912E230BC0623061F49FB7F894BF
:1004D0008881322F309583238883EC912E2B2C93A7
:1004E0009FBF06C08FB7F894E8812E2B28838FBF5B
:1004F000DF91CF9108958E3008F08E508770806420
:1005000080937C0080917A00806480937A0080914F
:100510007A0086FDFCCF809178002091790090E0F0
:10052000922B08953FB7F8948091F4039091F503CE
:10053000A091F603B091F70326B5A89B05C02F3F05
:1005400019F00196A11DB11D3FBFBA2FA92F982FF9
:100550008827820F911DA11DB11DBC01CD0142E074
:10056000660F771F881F991F4A95D1F708952FB7F7
:10057000F8946091F0037091F1038091F2039091EF
:10058000F3032FBF0895CF93C82F863D31F0873DE9
:10059000D1F1853D09F09FC050C060E07FEF80E061
:1005A00090E00E9429080E94690761E08BE00E94A8
:1005B000100261E08CE00E941002C0931B01809148
:1005C000EE0381608093EE036091EA037091EB0388
:1005D0008091EC039091ED0320E030E0A9010E94AE
:1005E000D10F882369F01092EA031092EB03109266
:1005F000EC031092ED038091EE0384608093EE0390
:100600008BE094E064C06FEF70E080E090E00E94C7
:1006100029080E94690760E08BE00E94100260E0F8
:100620008CE00E941002C0931B018091EE03816058
:100630008093EE0384E894E04AC060E070E08FEFBE
:1006400090E00E9429080E94690761E08BE00E9407
:10065000100261E08CE00E941002C0931B018091A7
:10066000EE0381608093EE036091EA037091EB03E7
:100670008091EC039091ED0320E030E0A9010E940D
:10068000D10F882369F01092EA031092EB031092C5
:10069000EC031092ED038091EE0384608093EE03EF
:1006A0000E94B7026093E6037093E7038093E80328
:1006B0009093E9036093E2037093E3038093E40370
:1006C0009093E50381E08093E1038CE194E09093C3
:1006D0001A0180931901CF910895CF93DF93CDB77D
:1006E000DEB7C854D1090FB6F894DEBF0FBECDBF38
:1006F000CE0101960E9421018F3F09F44BC088234F
:1007000019F0813051F143C08E818B3D09F03FC01B
:100710008CEF8B838AE08D8380EA8E838091E00367
:100720008F8380911B0188873091150120911601DC
:1007300090911701809118013C872B879A878987B0
:100740003091EA032091EB039091EC038091ED034B
:10075000388B2F879E878D8714C08E818A3B29F422
:1007600087ED0E94C30291EA06C08B3B99F486EDA7
:100770000E94C30292EA8CEF8B8381E08D839E837B
:100780008F83CE0101960E947E018F3F19F081E098
:100790008093DE03C85BDF4F0FB6F894DEBF0FBE59
:1007A000CDBFDF91CF9108958F929F92AF92BF926C
:1007B000CF92DF92EF92FF92C82E0E94760B892B88
:1007C00011F080E01FC00E94B7024B015C0184E67B
:1007D000C89E600111240D2C000CEE08FF080E9439
:1007E000B702DC01CB0188199909AA09BB098C154C
:1007F0009D05AE05BF0528F40E94760B892B79F381
:10080000E0CF81E0FF90EF90DF90CF90BF90AF906E
:100810009F908F9008950E94E90081E00E94D40388
:10082000882341F087ED0E94C30281E00E94D40337
:100830008111FBCF80E00895CF92DF92EF92FF927B
:100840000E94E90085E00E94D403882349F087EDE7
:100850000E94C30281E00E94D4038111FBCF4EC0ED
:100860000E94B7026B017C018091E6039091E7033F
:10087000A091E803B091E903A7019601281B390B69
:100880004A0B5B0BDA01C90189389341A105B10517
:1008900020F086ED0E94C30231C08091E203909166
:1008A000E303A091E403B091E503A7019601281B9F
:1008B000390B4A0B5B0BDA01C901853F9140A10559
:1008C000B105E0F09091E10381E089278093E10395
:1008D000882329F060E070E08FEF90E003C060E0D3
:1008E00070E0CB010E9429080E946907C092E203D0
:1008F000D092E303E092E403F092E50380E0FF90FE
:10090000EF90DF90CF900895CF92DF92EF92FF9219
:100910000E94E90081E00E94D403882349F086ED1B
:100920000E94C30281E00E94D4038111FBCF68C002
:100930008091C1008F778093C10080916D008F7E80
:1009400080936D008CE090E00E949008C090F803C6
:10095000D090F903E090FA03F090FB032DEC3CEC0F
:100960004CEC5DE3609108047091090480910A04E5
:1009700090910B040E94D10F18161CF0C12CD12CA1
:1009800076016091EA037091EB038091EC03909102
:10099000ED03A70196010E94D10F882369F0C09250
:1009A000EA03D092EB03E092EC03F092ED03809126
:1009B000EE0384608093EE038091C1008068809391
:1009C000C10080916D00806180936D000E94B7022C
:1009D0006B017C010E94B702DC01CB018C199D09DF
:1009E000AE09BF098C329140A105B10520F4809178
:1009F000DE03882379F38091DE0381111092DE03F8
:100A000080E0FF90EF90DF90CF9008958F929F92BB
:100A1000AF92BF92CF92DF92EF92FF92CF93DF938C
:100A2000CDB7DEB7C059D1090FB6F894DEBF0FBEFF
:100A3000CDBFCE01875B9F4F0E9421018F3F09F4FC
:100A40009CC02091DC033091DD032115310529F094
:100A50002130310509F44AC07FC0813009F08DC0D2
:100A60002F968FAD2F978A3F09F087C00E94BB0E4B
:100A70006FE270E00E94360F6C01CC0CDD1C0E940E
:100A8000B7024B015C01E12CF12C0E94B702DC01A2
:100A9000CB0188199909AA09BB098C159D05AE05DA
:100AA000BF0548F48091DB03882379F3CE010196DA
:100AB0000E94210162C08CEF8B838BEF8E83609646
:100AC0008FAD60978F8386E08887198681E08A875B
:100AD0008FEA8B8785E08D83CE0101960E947E018F
:100AE0008F3F09F44AC081E090E02CC0813079F555
:100AF0002F969FAD2F979C3F51F560962FAD609735
:100B0000209314018093DA038FB7F8942091140195
:100B1000209313012091D8033091D903309312010F
:100B2000209311018FBF9B83809113018C838DEFE4
:100B30008E831D82CE0101960E947E018F3F39F087
:100B400082E090E09093DD038093DC0316C0109266
:100B5000DD031092DC0311C083EF8093D70388E399
:100B600091E00E9403132FEF83ED90E3215080402A
:100B70009040E1F700C00000F2CFC057DF4F0FB642
:100B8000F894DEBF0FBECDBFDF91CF91FF90EF9005
:100B9000DF90CF90BF90AF909F908F9008951F925D
:100BA0000F920FB60F9211242F933F938F939F9321
:100BB000AF93BF938091F0039091F103A091F20362
:100BC000B091F3033091EF0323E0230F2D3720F48E
:100BD0000196A11DB11D05C026E8230F0296A11D97
:100BE000B11D2093EF038093F0039093F103A09342
:100BF000F203B093F3038091F4039091F503A09175
:100C0000F603B091F7030196A11DB11D8093F40383
:100C10009093F503A093F603B093F703BF91AF91C0
:100C20009F918F913F912F910F900FBE0F901F902A
:100C300018951F920F920FB60F9211242F938F9336
:100C40009F93EF93FF938091C600909110019111B3
:100C500009C092E09093100110920F019FEF9093C2
:100C60000E0107C08F3F11F4915001C092E09093A4
:100C7000100190910F01983408F046C09430F9F0BB
:100C8000973469F091112FC09FEF90938F03909349
:100C9000900393E090930F018093910317C080938A
:100CA000D6038FEF80930F0180930E0181E0809334
:100CB000DB035C9B02C05C9827C05C9A25C0813432
:100CC00040F08FEF80930F0180930E011092DB03B1
:100CD0001BC096E0980F90930E0195E090930F0142
:100CE0008093930311C020910E01921303C096E4E8
:100CF00090930F01E0910F0191E09E0F90930F01EF
:100D0000F0E0E157FC4F8083FF91EF919F918F912D
:100D10002F910F900FBE0F901F9018951F920F925A
:100D20000FB60F9211242F933F934F935F936F93BE
:100D30007F938F939F93AF93BF93EF93FF939BB159
:100D400080918E0189279BB190938E0184FF10C002
:100D500080916D008F7E80936D007894E0911101F9
:100D6000F0911201099580916D00806180936D0072
:100D7000FF91EF91BF91AF919F918F917F916F9173
:100D80005F914F913F912F910F900FBE0F901F9049
:100D90001895FC01848DDF01A80FB11DA35ABF4F28
:100DA0002C91848D90E001968F739927848FA6896A
:100DB000B7892C93A089B1898C91837080648C93BE
:100DC000938D848D981306C00288F389E02D80816D
:100DD0008F7D80830895EF92FF920F931F93CF939F
:100DE000DF93EC0181E0888F9B8D8C8D981305C07B
:100DF000E889F989808185FD26C0F62E0B8D10E0EB
:100E00000F5F1F4F0F731127E02E8C8DE8120CC05F
:100E10000FB607FCFACFE889F989808185FFF5CF05
:100E2000CE010E94C906F1CF8B8DFE01E80FF11DA6
:100E3000E35AFF4FF0829FB7F8940B8FEA89FB8942
:100E4000808180620AC09FB7F894EE89FF89608331
:100E5000E889F98980818370806480839FBF81E005
:100E600090E0DF91CF911F910F91FF90EF90089547
:100E7000CF93DF93EC01888D8823C9F0EA89FB8941
:100E8000808185FD05C0A889B9898C9186FD0FC038
:100E90000FB607FCF5CF808185FFF2CFA889B9890D
:100EA0008C9185FFEDCFCE010E94C906E7CFDF917F
:100EB000CF910895FC01538D448D252F30E0842F70
:100EC00090E0821B930B541710F0CF960895019772
:100ED00008950F931F93CF93DF93CDB7DEB7299774
:100EE0000FB6F894DEBF0FBECDBF80915C04909129
:100EF0005D04892B09F4A2C00E9492020091620451
:100F0000109163042091640430916504DC01CB01ED
:100F1000801B910BA20BB30B8C329140A105B10544
:100F200058F3F89480915804909159049A838983D6
:100F3000E0915C04F0915D04DF0111968081898766
:100F400090915404E0916604F091670480916804E4
:100F5000992309F42EC09081982B988790818095D1
:100F600089238F838F818C8388E08B8358856F8161
:100F700049853B812C8189819A81508347FD252FAA
:100F80003A952083262F39F0441F00C0000060836B
:100F9000000000C0F2CF38E04D916083000001975F
:100FA00061F7F0936704E093660449873B832C83E1
:100FB00038C09081982B98879081809589238F8362
:100FC0008F818E8388E08D8358856F8149853D812F
:100FD0002E8189819A81508347FD252F00C000C052
:100FE000208300C000C000C000C000C060830000BB
:100FF000262F3A9541F0441F000000C000C000C0F9
:1010000000C000C0E8CF38E04D9100C0608300C050
:10101000019709F7F0936704E093660449873D83DD
:101020002E839A83898378940E949202609362044B
:1010300070936304809364049093650429960FB6BB
:10104000F894DEBF0FBECDBFDF91CF911F910F91FE
:1010500008958F929F92AF92BF92CF92DF92EF92BC
:10106000FF92CF93DF932091560430915704232BA6
:1010700009F44BC04C01AA24BB24A82DC72ED82E9E
:10108000E92EFF24FC2DE62F20915B04222361F042
:10109000829E40011124A92D2C9D60011124FD2D5B
:1010A000269FA0011124E52F30916104B0915E04C8
:1010B00040915C0450915D043B17A9F0892E99245E
:1010C000AA24BB24EA01C30FD11D211102C0682D3F
:1010D00009C030E0289D7001299DF00C389DF00C6E
:1010E00011246F2D688380915E04EA01C80FD11D21
:1010F000A88380915F04DA01A80FB11DFC93809151
:101100006004DA01A80FB11DEC93DF91CF91FF903D
:10111000EF90DF90CF90BF90AF909F908F90089509
:101120002F923F924F925F926F927F928F929F92F7
:10113000AF92BF92CF92DF92EF92FF920F931F93E5
:10114000CF93DF93CDB7DEB72E970FB6F894DEBFFF
:101150000FBECDBF9E838D838EE480937C000E9462
:1011600092026B017C0122E0822E912CA12CB12CE9
:101170000E949202DC01CB018C199D09AE09BF09C6
:10118000883E9340A105B10598F321E0821A9108A9
:10119000A108B10838EEC30E33E0D31EE11CF11CE8
:1011A00081149104A104B10419F780917A0080643C
:1011B00080937A0080917A0086FDFCCF8091780040
:1011C0002091790030E0322F2227A901330F660BDE
:1011D000770B9A01AB01282B60E070E381E190E08E
:1011E0000E94D30E29873A874B875C870E94B702FB
:1011F0006B017C0180910C040E947B02909351044E
:1012000080935004BC01990F880B990B0E944A10DF
:101210004B015C012DEC3CEC4CE054E40E94D10FFE
:1012200087FF15C026E636E646EE53E4C501B40155
:101230000E94FA1018165CF40E94B70269837A8340
:101240008B839C831E861D8600E010E05EC10E9499
:10125000B702DC01CB018C199D09AE09BF09813DA4
:101260009740A105B10530F2E7CF0E94B702DC013B
:10127000CB0129813A814B815C81821B930BA40BAA
:10128000B50B803D9740A105B10508F044C18D859F
:101290009E8501969E878D878091240490912504D8
:1012A000A0912604B09127048093200490932104F8
:1012B000A0932204B093230480910C040E947B022B
:1012C00090931D0480931C0480910E040E947B0265
:1012D0003C0190931F0480931E0420901C043090C6
:1012E0001D04B101032C000C880B990B0E944A10BD
:1012F0006B017C0180902C0490902D04A0902E0412
:10130000B0902F04A50194010E94640F20E030E00A
:1013100040E85AE30E94FF10A50194010E94650F66
:101320009B01AC0160932C0470932D0480932E04D8
:1013300090932F04C701B6010E94640F4B015C011A
:1013400060932404709325048093260490932704CB
:10135000B301770C880B990B0E944A106B017C013A
:101360004090300450903104609032047090330407
:10137000A30192010E94640F20E030E040E85AE3AC
:101380000E94FF10A30192010E94650F9B01AC0116
:10139000609330047093310480933204909333044B
:1013A000C701B6010E94640F6B017C0160932804A1
:1013B0007093290480932A0490932B04A50194012F
:1013C000C501B4010E94FF109B01AC016093380479
:1013D0007093390480933A0490933B0460913C04E9
:1013E00070913D0480913E0490913F040E94650FEE
:1013F00060933C0470933D0480933E0490933F04BB
:10140000A7019601C701B6010E94FF109B01AC0124
:10141000609340047093410480934204909343048A
:101420006091440470914504809146049091470472
:101430000E94650F609344047093450480934604B2
:10144000909347044090200450902104609022041F
:1014500070902304A3019201C501B4010E94640F9E
:10146000209118043091190440911A0450911B04E2
:101470000E94FF10A30192010E94650F9B01AC0125
:10148000609334047093350480933604909337044A
:10149000C701B6010E94FF109B01AC016093480494
:1014A0007093490480934A0490934B0460914C04D8
:1014B00070914D0480914E0490914F040E94650FED
:1014C00060934C0470934D0480934E0490934F04AA
:1014D0008091530480935204809150049091510460
:1014E000821593050CF0FFC041E0409353048091B6
:1014F0005304AD85BE85119711F4809352049091E9
:101500005204981711F00F5F1F4F8D819E810817AD
:10151000190708F4AACE29853A85B901330F880B3B
:10152000990B0E944A1020E030E04AE754E40E9400
:10153000D60F20E030E040E85AE30E94FF102B0174
:101540003C012091100430911104409112045091FB
:1015500013040E94FF104B015C014D855E85BA01AA
:1015600080E090E00E9448106B017C019B01AC017F
:1015700060913C0470913D0480913E0490913F0441
:101580000E94D60F0E9472119B01AC01C501B401EB
:101590000E94FF1069837A838B839C836093040489
:1015A000709305048093060490930704209114041B
:1015B000309115044091160450911704C301B201F3
:1015C0000E94FF102B013C01A70196016091440489
:1015D0007091450480914604909147040E94D60F73
:1015E0000E9472119B01AC01C301B2010E94FF1065
:1015F0006D837E838F8398876093080470930904BA
:1016000080930A0490930B04A3019201C501B401D5
:101610000E94FF1020914C0430914D0440914E04E3
:1016200050914F040E94FF10A70196010E94D60F0F
:101630006B017C016093F8037093F9038093FA03C4
:101640009093FB032D813E814F81588569817A817A
:101650008B819C810E94FF109B01AC016093FC0375
:101660007093FD038093FE039093FF03C701B601BF
:101670000E94D60F609300047093010480930204CB
:101680009093030410923C0410923D0410923E0487
:1016900010923F04109244041092450410924604A4
:1016A0001092470410924C0410924D0410924E0474
:1016B00010924F042E960FB6F894DEBF0FBECDBF2A
:1016C000DF91CF911F910F91FF90EF90DF90CF901E
:1016D000BF90AF909F908F907F906F905F904F9052
:1016E0003F902F9008951092530401CFCF93DF9332
:1016F000EEE7F0E08491E2E9F0E0D491E0EBF0E095
:10170000C491CC2391F081110E94E701EC2FF0E00D
:10171000EE0FFF1FEE58FF4FA591B491EC91ED2312
:1017200081E090E021F480E002C080E090E0DF9171
:10173000CF91089580915C0490915D04009711F021
:101740000E945F1280915A0487FD03C060E00C94F0
:101750003F020895789484B5826084BD84B5816029
:1017600084BD85B5826085BD85B5816085BD80916C
:101770006E00816080936E001092810080918100E4
:1017800082608093810080918100816080938100DC
:10179000809180008160809380008091B10084609E
:1017A0008093B1008091B00081608093B0008091FF
:1017B0007A00846080937A0080917A0082608093BE
:1017C0007A0080917A00816080937A0080917A001B
:1017D000806880937A001092C1008BB180938E0153
:1017E00080E091E09093090580930805209A28985D
:1017F0009FB7F8948091C00082608093C000809170
:10180000C10080618093C1008091C1008860809395
:10181000C1008091C2008F778093C2008091C20086
:101820008F7B8093C2008091C2008F7D8093C20025
:101830008091C2008F7E8093C2008091C200886038
:101840008093C2008091C2008B7F8093C200809100
:10185000C20084608093C2008091C2008260809345
:10186000C2001092C5001092C4009FBF8091C100B9
:1018700080688093C100549A80916D00806180934C
:101880006D008091680084608093680078947894FB
:10189000EFE8F1E020E030E0922F882748E0BC013B
:1018A000660F771F97FF06C0CB0151E2852750E1F5
:1018B000952701C0CB01415091F7819391932F5F00
:1018C0003F4F211581E0380739F7CFB7F894F999E0
:1018D000FECF07B600FCFDCF80E090E00E94CB0E6B
:1018E0008A3A71F4F999FECF07B600FCFDCF81E08A
:1018F00090E00E94CB0E80931301CFBFC0E005C0E3
:1019000084EF8093D703CFBFCFEF8C2F0C2E000C2A
:10191000990B9F93CF9387E491E09F938F930E94BD
:10192000ED120F900F900F900F90CF3F39F082E0A3
:1019300090E09093DD038093DC0370C08091D70327
:10194000843F09F05DC080917C008F7780937C009C
:1019500080917C00806480937C0080917C008F7DEE
:1019600080937C0080917A00846080937A008091DB
:101970007A00826080937A0080917A0081608093FF
:101980007A0080917A00806880937A0087E00E94D4
:10199000F4008C0186E00E94F400EC0185E00E94D6
:1019A000F400CF70DD2724E0CC0FDD1F2A95E1F78E
:1019B0008F709927982F8827C82BD92B0F70112744
:1019C000C02BD12B84E00E94F400982F8827929599
:1019D000907F8C2B9D2B0E94C00E1092DD031092E5
:1019E000DC0380911101909112019093D9038093AF
:1019F000D80386E095E090931201809311010EC008
:101A00008BE591E00E9403139FEF23ED50E391508B
:101A100020405040E1F700C00000F2CF61E08BE0D1
:101A20000E943F0261E08CE00E943F0261E08BE097
:101A30000E94100261E08CE00E94100260E082E0EF
:101A40000E943F0261E082E00E94100280915A04ED
:101A500087FD08C061E00E943F0260E080915A0467
:101A60000E94100281E08093550460E070E0CB0199
:101A70000E9429080E9469078EE090E090930D046F
:101A800080930C0480E090E8ACE6B3E4809310040B
:101A900090931104A0931204B09313048AE999E976
:101AA000A9EDBFE38093180490931904A0931A043E
:101AB000B0931B0480E090E0A0E0B4E480932C0499
:101AC00090932D04A0932E04B0932F042FE030E0C8
:101AD00030930F0420930E0440E050E060EF71E477
:101AE00040931404509315046093160470931704E4
:101AF0008093300490933104A0933204B093330464
:101B00008091C1008F778093C10080916D008F7E9E
:101B100080936D00C4E6D0E084E190E00E949008DC
:101B20002197D1F78091C10080688093C100809196
:101B30006D00806180936D0060E07FEF80E090E059
:101B40000E9429080E946907CAE6D1E08091DC035F
:101B50009091DD0382309105E8F0029769F480915D
:101B600013011F928F93DF93CF930E94ED120F907A
:101B70000F900F900F900EC08AE791E00E94031320
:101B80002FEF53ED80E3215050408040E1F700C03B
:101B90000000F2CFE0911901F0911A010995D6CF1A
:101BA00010926C0410926B0488EE93E0A0E0B0E019
:101BB00080936D0490936E04A0936F04B0937004AF
:101BC0008AE291E090936A048093690485EC90E046
:101BD000909376048093750484EC90E0909378045D
:101BE0008093770480EC90E090937A04809379045A
:101BF00081EC90E090937C0480937B0482EC90E0F5
:101C000090937E0480937D0486EC90E09093800412
:101C100080937F04109282041092830410928404B3
:101C2000109285041092550410925B041092620485
:101C300010926304109264041092650481E0809312
:101C4000610480935E0410925F0492E090936004BC
:101C50008093540483E090E0909359048093580457
:101C60000E94C71190935D0480935C04009761F01B
:101C700023E0FC0111922A95E9F781E090E090932E
:101C800057048093560408C01092590410925804C7
:101C9000109257041092560486E080935A04809163
:101CA0005504882341F061E086E00E943F0260E035
:101CB00086E00E941002E4EBF0E0E491F0E0EE0F29
:101CC000FF1FEC55FF4F859194919093670480938B
:101CD0006604E6E9F0E0E491E093680408958F92E9
:101CE0009F92AF92BF92CF92DF92EF92FF92CF93EB
:101CF000DF93EC01688179818A819B81611571058F
:101D00008105910521F464E279ED8BE597E02DE101
:101D100033EF41E050E00E94D30E49015A019B018C
:101D2000AC01A7EAB1E40E94F20E6B017C01ACEEBB
:101D3000B4EFA50194010E94000FDC01CB018C0DD2
:101D40009D1DAE1DBF1DB7FF03C00197A109B0487F
:101D500088839983AA83BB839F77DF91CF91FF907C
:101D6000EF90DF90CF90BF90AF909F908F900895AD
:101D70000E946F0E08958CE191E00E946F0E08950D
:101D8000A0E0B0E080931C0190931D01A0931E0180
:101D9000B0931F010895F999FECF92BD81BDF89AC5
:101DA000992780B50895052E97FB1EF400940E9494
:101DB000EA0E57FD07D00E94050F07FC03D04EF432
:101DC0000C94EA0E50954095309521953F4F4F4F1A
:101DD0005F4F089590958095709561957F4F8F4FD7
:101DE0009F4F08950E94270FA59F900DB49F900DBF
:101DF000A49F800D911D11240895B7FF0C94F20E3D
:101E00000E94F20E821B930B0895A1E21A2EAA1BC8
:101E1000BB1BFD010DC0AA1FBB1FEE1FFF1FA2179A
:101E2000B307E407F50720F0A21BB30BE40BF50B97
:101E3000661F771F881F991F1A9469F76095709520
:101E4000809590959B01AC01BD01CF010895A29FA3
:101E5000B001B39FC001A39F700D811D1124911D7E
:101E6000B29F700D811D1124911D089597FB072EBF
:101E700016F4009407D077FD09D00E944A0F07FCA2
:101E800005D03EF4909581959F4F0895709561958A
:101E90007F4F0895AA1BBB1B51E107C0AA1FBB1FA0
:101EA000A617B70710F0A61BB70B881F991F5A95E6
:101EB000A9F780959095BC01CD010895EE0FFF1F05
:101EC0000590F491E02D09945058BB27AA270E9451
:101ED0007C0F0C94C0100E94B21038F00E94B91010
:101EE00020F039F49F3F19F426F40C94AF100EF44F
:101EF000E095E7FB0C94A910E92F0E94D11058F34C
:101F0000BA17620773078407950720F079F4A6F5DE
:101F10000C94F3100EF4E0950B2EBA2FA02D0B01AC
:101F2000B90190010C01CA01A0011124FF27591B1E
:101F300099F0593F50F4503E68F11A16F040A22F24
:101F4000232F342F4427585FF3CF46953795279595
:101F5000A795F0405395C9F77EF41F16BA0B620B94
:101F6000730B840BBAF09150A1F0FF0FBB1F661FDB
:101F7000771F881FC2F70EC0BA0F621F731F841F1E
:101F800048F4879577956795B795F7959E3F08F044
:101F9000B0CF9395880F08F09927EE0F9795879506
:101FA00008950E94851008F481E008950E94EA0FC8
:101FB0000C94C0100E94B91058F00E94B21040F06A
:101FC00029F45F3F29F00C94A91051110C94F410DE
:101FD0000C94AF100E94D11068F39923B1F35523EC
:101FE00091F3951B550BBB27AA276217730784072C
:101FF00038F09F5F5F4F220F331F441FAA1FA9F3C2
:1020000035D00E2E3AF0E0E832D091505040E695AF
:10201000001CCAF72BD0FE2F29D0660F771F881F10
:10202000BB1F261737074807AB07B0E809F0BB0B03
:10203000802DBF01FF2793585F4F3AF09E3F510517
:1020400078F00C94A9100C94F4105F3FE4F3983EE0
:10205000D4F3869577956795B795F7959F5FC9F700
:10206000880F911D9695879597F90895E1E0660F81
:10207000771F881FBB1F621773078407BA0720F0FA
:10208000621B730B840BBA0BEE1F88F7E095089563
:10209000E89409C097FB3EF4909580957095619502
:1020A0007F4F8F4F9F4F9923A9F0F92F96E9BB27B8
:1020B0009395F695879577956795B795F111F8CF34
:1020C000FAF4BB0F11F460FF1BC06F5F7F4F8F4F9F
:1020D0009F4F16C0882311F096E911C0772321F095
:1020E0009EE8872F762F05C0662371F096E8862F2D
:1020F00070E060E02AF09A95660F771F881FDAF784
:10210000880F9695879597F90895990F0008550FB0
:10211000AA0BE0E8FEEF16161706E807F907C0F06D
:1021200012161306E407F50798F0621B730B840B75
:10213000950B39F40A2661F0232B242B252B21F44F
:1021400008950A2609F4A140A6958FEF811D811DEF
:10215000089597F99F6780E870E060E008959FEF29
:1021600080EC089500240A9416161706180609062E
:10217000089500240A9412161306140605060895FD
:10218000092E0394000C11F4882352F0BB0F40F485
:10219000BF2B11F460FF04C06F5F7F4F8F4F9F4FC5
:1021A000089557FD9058440F551F59F05F3F71F047
:1021B0004795880F97FB991F61F09F3F79F08795AE
:1021C0000895121613061406551FF2CF4695F1DF37
:1021D00008C0161617061806991FF1CF86957105C7
:1021E000610508940895E894BB2766277727CB01FB
:1021F00097F908950E94851008F48FEF08950E94C2
:1022000012110C94C0100E94B21038F00E94B91044
:1022100020F0952311F00C94A9100C94AF10112408
:102220000C94F4100E94D11070F3959FC1F3950F98
:1022300050E0551F629FF001729FBB27F00DB11D4A
:10224000639FAA27F00DB11DAA1F649F6627B00DDA
:10225000A11D661F829F2227B00DA11D621F739FC3
:10226000B00DA11D621F839FA00D611D221F749FD1
:102270003327A00D611D231F849F600D211D822F18
:10228000762F6A2F11249F5750409AF0F1F088233F
:102290004AF0EE0FFF1FBB1F661F771F881F91506C
:1022A0005040A9F79E3F510580F00C94A9100C9462
:1022B000F4105F3FE4F3983ED4F3869577956795E5
:1022C000B795F795E7959F5FC1F7FE2B880F911D96
:1022D0009695879597F9089519F416F40C94AF1014
:1022E0000C94B2110E94D910B8F39923C9F3B6F334
:1022F0009F57550B87FF0E94C0110024A0E640EABB
:10230000900180585695979528F4805C660F771F4A
:10231000881F20F026173707480730F4621B730B1D
:10232000840B202931294A2BA69517940794202540
:1023300031254A2758F7660F771F881F20F0261788
:102340003707480730F4620B730B840B200D311DE7
:10235000411DA09581F7B901842F9158880F96955A
:10236000879508959F3F31F0915020F48795779598
:102370006795B795880F911D9695879597F908955C
:1023800091505040660F771F881FD2F708950F9322
:102390001F93CF93DF938230910510F482E090E099
:1023A000E0910E05F0910F0520E030E0A0E0B0E0F4
:1023B000309719F1408151810281138148175907E3
:1023C000C8F08417950769F4109731F012960C93B2
:1023D000129713961C9327C000930E0510930F05B8
:1023E00022C02115310519F04217530718F49A013C
:1023F000BD01EF01DF01F801DBCF21153105F9F057
:10240000281B390B2430310580F48A819B816115AA
:10241000710521F0FB019383828304C090930F0523
:1024200080930E05FE01329644C0FE01E20FF31FB9
:102430008193919322503109398328833AC02091A6
:102440000C0530910D05232B41F420912201309190
:10245000230130930D0520930C052091200130912C
:1024600021012115310541F42DB73EB740912401DA
:1024700050912501241B350BE0910C05F0910D05C1
:10248000E217F307A0F42E1B3F0B2817390778F04B
:10249000AC014E5F5F4F2417350748F04E0F5F1FAA
:1024A00050930D0540930C058193919302C0E0E099
:1024B000F0E0CF01DF91CF911F910F910895CF935D
:1024C000DF93009709F481C0FC01329713821282D6
:1024D000A0910E05B0910F05109781F420813181F4
:1024E000820F931F20910C0530910D052817390795
:1024F00051F5F0930D05E0930C0567C0ED0120E068
:1025000030E0CE17DF0740F44A815B819E01411520
:102510005105F1F0EA01F5CFD383C28340815181A7
:10252000840F951FC817D90759F488819981840FA2
:10253000951F0296918380838A819B8193838283F6
:102540002115310529F4F0930F05E0930E053DC0E8
:10255000E901FB83EA8349915991C40FD51FEC1718
:10256000FD0761F480819181840F951F0296E90136
:1025700099838883828193819B838A83E0E0F0E062
:1025800012968D919C911397009719F0FD01DC0133
:10259000F7CF8D919C9111979D012E5F3F4F820F38
:1025A000931F20910C0530910D052817390769F408
:1025B000309729F410920F0510920E0502C0138275
:1025C0001282B0930D05A0930C05DF91CF91089571
:1025D00081E090E0F8940C94FB15A0E0B0E0E3EF0C
:1025E000F2E10C94D415AE014B5F5F4FFA0161919B
:1025F0007191AF0180910805909109050E943313F4
:10260000E2E00C94F0150F931F93CF93DF93E091CA
:102610000805F0910905238121FF1BC08C01D0E042
:10262000C0E0F80181918F01609108057091090562
:10263000DB011896ED91FC911997882331F00995EB
:10264000892B79F3DFEFCFEFECCF8AE00995892B67
:1026500019F08FEF9FEF02C08D2F9C2FDF91CF914C
:102660001F910F910895ABE0B0E0E9E3F3E10C9422
:10267000C4156C017B018A01FC01178216828381DB
:1026800081FFCCC1CE0101963C01F6019381F70197
:1026900093FD859193FF81917F01882309F4BAC14D
:1026A000853239F493FD859193FF81917F018532C5
:1026B00029F4B60190E00E942A15E7CF912C212C35
:1026C000312CFFE1F315D8F08B3279F038F48032F9
:1026D00079F08332A1F4232D20611DC08D3261F089
:1026E000803369F4232D216016C0832D8260382E3B
:1026F000E32DE4603E2E2AC0F32DF8601DC037FCA8
:102700002DC020ED280F2A3040F08E32B9F436FC6F
:1027100081C1232D2064322E19C036FE06C08AE006
:10272000989E200D1124922E11C0EAE02E9E200DBD
:102730001124222EF32DF0623F2E08C08C3621F496
:10274000832D8068382E02C0883641F4F70193FD4E
:10275000859193FF81917F018111B3CF982F9F7D48
:102760009554933028F40C5F1F4F9FE399830DC05D
:10277000833631F0833771F0833509F059C021C0B9
:10278000F801808189830E5F1F4F88248394912CE8
:10279000530113C02801F2E04F0E511CF801A08034
:1027A000B18036FE03C0692D70E002C06FEF7FEF8D
:1027B000C5010E941F154C018201F32DFF773F2EAA
:1027C00016C0280122E0420E511CF801A080B18001
:1027D00036FE03C0692D70E002C06FEF7FEFC501C8
:1027E0000E9414154C01F32DF0683F2E820133FC3A
:1027F0001BC0822D90E088169906B0F4B60180E2E5
:1028000090E00E942A152A94F4CFF50137FC8591B7
:1028100037FE81915F01B60190E00E942A152110D8
:102820002A9421E0821A91088114910471F7E8C07A
:10283000843611F0893641F5F80137FE07C0608112
:102840007181828193810C5F1F4F08C0608171810B
:10285000072E000C880B990B0E5F1F4FF32DFF7690
:102860003F2E97FF09C090958095709561957F4F99
:102870008F4F9F4FF0683F2E2AE030E0A3010E9467
:102880006615882E861845C0853731F4232D2F7E96
:10289000B22E2AE030E025C0932D997FB92E8F36D5
:1028A000C1F018F4883579F0B5C0803719F0883751
:1028B00021F0B0C0E92FE061BE2EB4FE0DC0FB2DAB
:1028C000F460BF2E09C034FE0AC0292F2660B22E44
:1028D00006C028E030E005C020E130E002C020E181
:1028E00032E0F801B7FE07C0608171818281938177
:1028F0000C5F1F4F06C06081718180E090E00E5F29
:102900001F4FA3010E946615882E8618FB2DFF77A6
:102910003F2E36FE0DC0232D2E7FA22E891458F493
:1029200034FE0BC032FC09C0832D8E7EA82E05C05C
:10293000B82CA32C03C0B82C01C0B92CA4FE0FC026
:10294000FE01E80DF11D8081803321F49A2D997EDE
:10295000A92E09C0A2FE06C0B394B39404C08A2D68
:10296000867809F0B394A3FC11C0A0FE06C0B2148F
:1029700088F4280C922C9B180EC0B21460F4B60197
:1029800080E290E00E942A15B394F7CFB21418F4B5
:102990002B1802C0982C212CA4FE10C0B60180E395
:1029A00090E00E942A15A2FE17C0A1FC03C088E790
:1029B00090E002C088E590E0B6010CC08A2D8678D0
:1029C00059F0A1FE02C08BE201C080E2A7FC8DE2BB
:1029D000B60190E00E942A15891438F4B60180E30C
:1029E00090E00E942A159A94F7CF8A94F301E80D9B
:1029F000F11D8081B60190E00E942A158110F5CF6B
:102A0000222009F442CEB60180E290E00E942A150D
:102A10002A94F6CFF6018681978102C08FEF9FEF4F
:102A20002B96E2E10C94E015FC010590615070409A
:102A30000110D8F7809590958E0F9F1F0895FC0187
:102A40006150704001900110D8F7809590958E0FDD
:102A50009F1F08950F931F93CF93DF93FB01238153
:102A600021FD03C08FEF9FEF2CC022FF16C04681CF
:102A70005781248135814217530744F4A081B181E5
:102A80009D012F5F3F4F318320838C9326813781B7
:102A90002F5F3F4F3783268314C08B01EC01FB016E
:102AA0000084F185E02D0995892BE1F6D801169671
:102AB0008D919C911797019617969C938E931697DC
:102AC000CE01DF91CF911F910F910895FA01AA27AE
:102AD000283051F1203181F1E8946F936E7F6E5F61
:102AE0007F4F8F4F9F4FAF4FB1E03ED0B4E03CD00F
:102AF000670F781F891F9A1FA11D680F791F8A1FF2
:102B0000911DA11D6A0F711D811D911DA11D20D058
:102B100009F468943F912AE0269F11243019305D12
:102B20003193DEF6CF010895462F4770405D419303
:102B3000B3E00FD0C9F7F6CF462F4F70405D4A3350
:102B400018F0495D31FD4052419302D0A9F7EACF18
:102B5000B4E0A6959795879577956795BA95C9F747
:102B600000976105710508959B01AC010A2E06943A
:102B70005795479537952795BA95C9F7620F731FF3
:102B8000841F951FA01D08952F923F924F925F9230
:102B90006F927F928F929F92AF92BF92CF92DF926D
:102BA000EF92FF920F931F93CF93DF93CDB7DEB7D2
:102BB000CA1BDB0B0FB6F894DEBF0FBECDBF099466
:102BC0002A88398848885F846E847D848C849B84BD
:102BD000AA84B984C884DF80EE80FD800C811B81CB
:102BE000AA81B981CE0FD11D0FB6F894DEBF0FBEFA
:102BF000CDBFED01089510E0C2E6D0E004C0FE01B3
:102C00000E945E0F2196C336D107C9F7F894FFCF13
:102C100000000002000000000F0100000000FFFFA4
:102C2000026D03FDFD0020FA440B04D601000000F4
:102C300000001005200000000000EB06BB005A0752
:102C40003807AF008D00A100496E7465726E616C2B
:102C5000206572726F72006865696C612067616DD2
:102C60006265726F6E6F2025640A00494E544552AA
:102C70004E414C204552524F52004D7920616464C0
:102C8000726573733A2025640A004552524F5245CB
:0A2C900020494E5445524E4F0000FB
:00000001FF
